:020000040800F2
:10000000A80B002031020008550B0008510B000816
:10001000530B00088F050008E120000800000000D5
:10002000000000000000000000000000951D000816
:100030001D09000800000000890C00085302000898
:100040005502000855020008550200085502000834
:100050005502000855020008550200085502000824
:100060005502000855020008550200085502000814
:100070005502000855020008550200085502000804
:1000800055020008550200085502000855020008F4
:1000900055020008550200085502000855020008E4
:1000A00055020008550200085502000855020008D4
:1000B00055020008550200085502000855020008C4
:1000C00055020008550200085502000855020008B4
:1000D00055020008B51E0008D91E0008FD1E0008C4
:1000E0005502000855020008550200085502000894
:1000F0005502000855020008550200085502000884
:1001000055020008110F00085502000855020008AA
:10011000911E00085502000855020008550200080B
:100120005502000855020008550200082107000882
:100130005502000855020008550200085502000843
:100140005502000855020008550200085502000833
:10015000550200085502000855020008211F00083A
:100160005502000855020008550200085502000813
:100170005502000855020008550200085502000803
:10018000550200085502000800F002F800F041F89E
:100190000AA090E8000C82448344AAF10107DA45E2
:1001A00001D100F036F8AFF2090EBAE80F0013F0F3
:1001B000010F18BFFB1A43F0010318478C330000EE
:1001C000AC330000103A24BF78C878C1FAD852077F
:1001D00024BF30C830C144BF04680C6070470000C1
:1001E0000023002400250026103A28BF78C1FBD840
:1001F000520728BF30C148BF0B607047642900F028
:100200008980002070471FB503F098F91FBD10B515
:1002100010BD00F086F91146FFF7F5FF02F034FF3C
:1002200000F0A4F903B4FFF7F2FF03BC00F0A8F953
:100230000C48016841F4700101600B4880470B488D
:100240000047FEE7FEE7FEE7FEE7FEE7FEE7FEE724
:10025000FEE7FEE7FEE7000005480649064A074BB1
:100260007047000088ED00E0351E00088901000895
:10027000A8050020A80B0020A8070020A807002040
:100280000FB41CB5074B06AA7B446946009005983D
:1002900000F02FF90020694600F03EF91CBC5DF823
:1002A00014FB00008D0200002DE9F04104460E46CB
:1002B00000200AE0E1682046884738B3252806D0A8
:1002C000D4E901219047206A401C2062F2E7E168EE
:1002D000204600278847050018D0A5F141001928BD
:1002E00002D820354FF40067324629462046276061
:1002F000FFF784FF40B1012804D0F61D26F0070661
:100300000836D7E7361DD5E72846D9E7206ABDE885
:10031000F08100002DE9F04107460025106875299D
:10032000394616A411D0AFF30080002803DAC0F1DB
:10033000000013A407E039688A0701D511A402E080
:10034000490704D510A4012501E0AFF30080002186
:100350000A2307F1240607E0B0FBF3F203FB1200C7
:10036000303070541046491C0028F5D12B462246E7
:100370003846BDE8F04100F05BB800000000000026
:100380002D0000002B0000002000000040EA0103C7
:10039000024630B59B0710D14FF0013400E008C28F
:1003A00008C91D1B9D4315EAC41FF8D013F0FF01B7
:1003B00002F8011B0DD01B0AF8E711F8013B002BD6
:1003C00002F8013B05D011F8013B002B02F8013B7C
:1003D000F3D130BD10B5431C02E010F8011B71B120
:1003E0008107FAD14FF0013202C88C1A8C4314EA0B
:1003F000C211F9D0C01A0A0603D0C01E10BDC01A1F
:1004000010BD0A0401D0801E10BD0902FCD0401EA0
:1004100010BD421E12F8013F002BFBD111F8013B29
:10042000002B02F8013BF9D17047704770477047C5
:100430002DE9F0470D4604469246994600F12408FE
:100440000168880604D5E06921F01001216000E010
:100450000120A84202DDA0EB050700E00027A1690A
:1004600007EB050202EB0900A1EB0000A061206888
:10047000C00602D42046AFF30080002608E0D4E98D
:1004800001211AF806009047206A401C761C206261
:100490004E45F4DB2068C0060AD52046AFF3008045
:1004A00006E0D4E9012130209047206A401C2062F8
:1004B000381EA7F10107F4DC07E0D4E9012118F8A0
:1004C00005009047206A401C2062281EA5F1010506
:1004D000F3DC2046AFF300802068000602D502203E
:1004E000BDE8F0870120FBE701694A1C026108783A
:1004F000704700B58FB0CDE9013100210591054964
:100500007944CDE9031011466846FFF7CDFE0FB0E0
:1005100000BD0000E5FFFFFF0A6802F8010B0A605A
:100520007047754600F028F8AE4605006946534608
:1005300020F00700854618B020B5FFF78DFEBDE816
:1005400020404FF000064FF000074FF000084FF03A
:10055000000B21F00701AC46ACE8C009ACE8C009CB
:10056000ACE8C009ACE8C0098D4670470446AFF35B
:1005700000802046FFF756FE0048704748050020DF
:1005800001491820ABBEFEE7260002007047FEE7D7
:1005900070B5384904460025086810F0450FFBD0B7
:1005A000410702D50324042003E0C00705D001243D
:1005B000204600F049FC204670BD00F081FCA042BE
:1005C0002BD140F2FF5000F03FFC002000F09AFCDD
:1005D000294908424BD0002801DA1C2070BD410097
:1005E00001D5092070BD810001D50A2070BDC10070
:1005F00001D50B2070BD010101D50C2070BD41015A
:1006000001D50D2070BDC10101D50E2070BD0102C4
:1006100001D50F2070BD410201D5102070BD8102AF
:1006200001D5112070BDC10201D5122070BD01039A
:1006300001D5132070BD410301D5142070BD810385
:1006400001D5152070BDC10301D5162070BD010470
:1006500001D5172070BD410401D5182070BD81045B
:1006600001D5192070BD000701D51A2070BD28469C
:1006700070BD0000342C014008E0FFFD10B50B49AF
:100680000024086810F0450FFBD0410702D5032471
:10069000042003E0C00705D00124204600F0D4FB6D
:1006A000204610BD40F2FF50F8E70000342C014016
:1006B00070B50D46194904460026086810F0450F2C
:1006C000FBD0410702D50324042003E0C00705D076
:1006D0000124204600F0B8FB204670BD00F0F0FB7E
:1006E000A04213D140F2FF5000F0AEFB002000F01A
:1006F00009FC10F4604F03D0810405D5132070BDB0
:100700004FEA1040288007E0410401D5102070BD59
:10071000000401D50F2070BD304670BD342C01405F
:1007200001F02CB8074A904201D2074801E0054881
:100730001038064A8B0001EA020101D5C1607047FA
:100740008160704710640240006002407D0F7D0FA1
:100750000029016802D041F0010101E021F001010E
:10076000016070472DE9F043016821F0010101604B
:100770000021016041608160C1600161212141610E
:100780003C493C4B3D221039984202D18A60BDE879
:10079000F083384C4FF474631834A04201D18B605D
:1007A000F5E7344D4FF474143035A84201D18C6014
:1007B000EDE7304E4FF074654836B04201D18D60A0
:1007C000E5E72C4F2C4E6037B84201D1CE60DEE712
:1007D000284FDFF8A8C07837B84202D1C1F80CC062
:1007E000D5E7244FDFF898809037B84202D1C1F89E
:1007F0000C80CCE71F4F4FF03D59A837B84202D1CB
:10080000C1F80C90C3E71F491E4F0839B84201D107
:100810000A60BCE71B4A1832904201D10B60B6E770
:10082000184A3032904201D10C60B0E7154A483284
:10083000904201D10D60AAE7124A12496032091FA5
:10084000904201D10E60A2E70E4A7832904202D166
:10085000C1F800C09BE70B4A9032904202D1C1F828
:10086000008094E7074AA832904290D1C1F80090E6
:100870008DE70000106002403D000020400F002086
:1008800000003D20106402400029016802D041F0C0
:10089000200101E021F02001016070470B0607D51F
:1008A000436912B143F0800301E023F08003436108
:1008B000802908D0002A026801F01E0101D00A43F5
:1008C00000E08A430260704730B50368124ACC6882
:1008D00013400A682243D1E905452C432243CC69E1
:1008E00022430C6A22434C6A22438C6A22434C6B9B
:1008F00022438C6B22431A430260426922F00703B1
:10090000D1E90B2422431A4342610A6942604A68D2
:1009100082608968C16030BD3F801CF07047000074
:100920002DE9FC470024484D00944FF0080A01943B
:1009300010204FF04008C5F800A0C5E901084FF4A9
:100940008069C5E903490E462746284600F00AFBA0
:100950001020FFF71DFE00283FD13C4880680004AE
:1009600028603720C5E90108C5E90379284600F069
:10097000F9FA3720FFF70CFE00282ED1411E05F1B1
:100980001400C0E9001A302181600221C0E9031778
:100990000121416100F070FA3320C5E90070C5F80B
:1009A0001090C5E90287284600F0DCFA3320FFF7F3
:1009B000EFFD050011D1264F4FF4001AE94640F231
:1009C0002A68386810EA080F09D0082000F07EFA7B
:1009D00080B1082000F038FA0420BDE8FC875046BA
:1009E00000F074FA0028ECD000F0B6FA49F82400C0
:1009F000641CE6E7022000F069FA20B1022000F052
:100A000023FA0220E9E7202000F060FA20B120203C
:100A100000F01AFA0620E0E74FF40074204600F0D8
:100A200055FA20B1204600F00FFA0720D5E740F232
:100A3000FF5000F009FA009800BA7060019800BAFF
:100A400030602846C9E700001C0500201400002083
:100A5000342C01407CB50121192000F017F9012048
:100A60008DF8040000208DF806008DF807004FF483
:100A700000600D4D022400908DF80540694628461F
:100A800000F016F80E2000908DF8054069462846C3
:100A900000F00EF8E00100908DF80540694603482B
:100AA00000F006F87CBD000000100240000002408B
:100AB000F0B5002201234FF0030C00BF0D6803FACC
:100AC00002F42540A5422DD1066854000CFA04F525
:100AD000AE4306600E790768A6403E4306600E7975
:100AE000012E01D0022E12D18668AE4386604D7968
:100AF0008668A54035438560456803FA02F6B5432C
:100B0000456045688E799640B6B235434560C56804
:100B100056000CFA06F7BD43C560CD79A540C46800
:100B20002543C560521C102AC8D3F0BD4B07DB0E0D
:100B30009A40C90810B500EB8100016A0F249C405F
:100B4000A1430162016A1143016210BD0183704734
:100B5000FEE7FEE7704738B525208DF80000002538
:100B60008DF801508DF8025001248DF8034068463D
:100B700000F04EF826208DF800008DF801408DF829
:100B800002508DF80340684600F042F827208DF8A7
:100B900000008DF801408DF802508DF80340684642
:100BA00000F036F834208DF800008DF801408DF803
:100BB00002508DF80340684600F02AF847208DF86F
:100BC00000008DF801408DF802508DF80340684612
:100BD00000F01EF838BD38B54FF4C06000F04AF898
:100BE00031208DF8000000208DF801008DF8020002
:100BF00001248DF80340684600F00AF83B208DF888
:100C000000008DF80140684600F002F838BD000091
:100C100070B50F21C478027801234FF0E026E4B1CB
:100C2000124C246804F4E064C4F5E064C4F30724BF
:100C3000C4F10405E1404478AC4085780D4025437B
:100C40000B4C29011155007800F01F018B40400921
:100C500006EB8000C0F8003170BD02F01F00834039
:100C6000500906EB8000C0F8803170BD0CED00E04B
:100C700000E400E0024908430249086070470000B0
:100C80000000FA050CED00E070470000044A00295E
:100C9000116801D0014300E08143116070470000FA
:100CA00030380240044A0029116801D0014300E0B5
:100CB000814311607047000040380240044A002917
:100CC000116801D0014300E08143116070470000CA
:100CD00044380240044A0029116801D0014300E071
:100CE00081431160704700002438024030B5224B28
:100CF0001968224A11F00C0104D05510042903D0C0
:100D0000082903D002601DE005601BE01A49091F95
:100D10000C68C4F3805C0C68BCF1000F04F03F0465
:100D200002D0B5FBF4F201E0B2FBF4F20C68096802
:100D3000C4F388146243C1F30141491C4900B2FB6A
:100D4000F1F1016019680E4A01F0F0010909545CE3
:100D50000168E14041601C6804F4E054A40A145D99
:100D600021FA04F484601B6803F460435B0BD25CDB
:100D7000D140C16030BD0000083802400024F400BA
:100D80002C0000202DE9FC47002604460096304642
:100D9000019600F0B7F8800102D50E20BDE8FC876F
:100DA000DFF89C806946D8F8080080B2FFF7B8FDEC
:100DB0000028F3D13720234D01994FF0060A4FF058
:100DC00040094FF48067012C1FD0C90336D5D8F8ED
:100DD0000810C5F808900904C5E900102846C5E9BF
:100DE000036700F0BFF83720FFF7D2FB0028D5D10A
:100DF000C5F80890C5E9006AC5E90367114800F025
:100E0000B1F80620FFF7C4FBC8E7490316D5D8F8A8
:100E10000810C5F808900904C5E900100948C5E99B
:100E2000036700F09FF83720FFF7B2FB0028B5D129
:100E30000220C5F80890C5E9000ADDE72520ADE7E6
:100E4000140000201C0500200149086070470000C4
:100E5000382C01400149086070470000382C0140DF
:100E60000149086070470000A080254201490860E0
:100E7000704700008C85254210B50A4A0168116050
:100E8000121D41681160121D116821F0F703D0E9AD
:100E900002142143D0E90440044321431943116063
:100EA00010BD0000242C014010B50121CC022046C9
:100EB000FFF710FF2046BDE810400021FFF70ABFF2
:100EC00001480068C0B27047102C0140034A014637
:100ED000002012680A4200D001207047342C0140E3
:100EE000034A0146002012680A4200D001207047E0
:100EF000342C01400248006800F0030070470000F5
:100F0000002C01400149405870470000142C01405A
:100F100000F048BC044A0029116801D0014300E0F8
:100F200081431160704700003C2C014030B5094BF3
:100F30001A6847F6FF618A43017D8468C5682143CA
:100F400044682C4321430468006921430143114351
:100F5000196030BD042C0140014800687047000052
:100F6000802C014010B5084A01681160121D1168FB
:100F7000CB0AD0E901142143D0E903400443DB024A
:100F800021431943116010BD082C0140014908603C
:100F900070470000002C01402DE9F041014619483E
:100FA00000244068032813D018B1012801D002287A
:100FB00025D1B1F5805F0BD04FF400670026124DAC
:100FC000B9420ED10120FFF7DDFE040003D016E088
:100FD0002720BDE8F0812E752E606E60C5E902679E
:100FE00009E00020FFF7CEFE040008D12E752E6028
:100FF0006E60AE60EE6004482E61FFF797FF2046FA
:10100000E7E7000014000020040500202DE9F0436C
:101010009649DFF85C924D6880F84E508968A0F8D8
:101020004C10D9F800100B0E9C090470C3F3830414
:10103000447003F0030383700B0CC3700B0A03713D
:101040004171D9F80440210E0901C180C288C4F35E
:10105000074142EA1112C28001F00F010172C4F38C
:101060000721CA094272C1F380128272C1F3401291
:10107000C272C1F3001202734FF0000C80F80DC071
:101080004A464FF001089668320EC6F30743C6F38E
:10109000072725B1012D02D0022D2BD03CE0890776
:1010A000090D0161E1B2046944EA8101016101694C
:1010B00041EA92110161C2F3C201017502F0070118
:1010C000417559098175C3F38201C1759907490FAB
:1010D0000176027E394642EAD11202760269037E27
:1010E000521C9B1C047A9A4008FA04F35A43C0E944
:1010F000112311E0A106890A0161016941EA022177
:10110000016101691943016102693946521CD20427
:1011100042644FF40072826400F11800C1F380123F
:1011200042704FEA81614FEA516181708378F1B278
:1011300043EAD113837001F07F01C170D9F80C200C
:101140004FEA12614FEAD1130371C1F341134371A6
:10115000C1F3820383714FEA81714FEA1171C1714A
:10116000C379C2F3074143EA9113C371C1F340133A
:10117000037280F809C001F001018172C2F30721F6
:101180004FEAD113C372C1F380130373C1F3401349
:101190004373C1F300138373C1F38103C37301F07D
:1011A00003010174C2F34601417480F81280304A91
:1011B00002F1100211684FEA11630375C1F307438E
:1011C0004FEA0323C382C48AC1F3072344EA03041A
:1011D000C4824FEA01618161516884694FEA1163F9
:1011E00044EA034383618469C1F3074344EA032368
:1011F00083618469C1F3072344EA030484610177AE
:1012000091684FEA11634377C1F307434FEA0363E1
:101210000362046AC1F3072344EA03430362036AD7
:10122000C9B243EA01210162D168036A43EA11634A
:10123000036290F82430C1F3074243EA121380F8A6
:1012400024304FEA02724FEA1252C284C38CC1F3B7
:10125000072243EA0203C384C1F3460180F8281041
:1012600080F829806046BDE8F0830000140000206B
:101270008404002008B500200090684600F0A6FB1A
:1012800008B1FF2008BD0098C0F3432008BD10B589
:10129000FFF7F0FF042803D0FF2803D0012010BD82
:1012A000002010BD022010BD10B5FFF794FC00F027
:1012B00035F9FFF7F9FD00F083F9002822D100F09D
:1012C00025F800281ED1104908750860486088601C
:1012D000C86008610846FFF729FE0B485038FFF741
:1012E00095FE00280ED108485038B0F84C00000494
:1012F00000F056FB002805D1BDE810404FF4006017
:10130000FFF74ABE10BD0000040500202DE9F84F8C
:1013100001200024ADF80000FFF7ECFDA8B3DFF8D2
:10132000E490D9F80400042869D0374D4FF0C00A82
:1013300000260220C5F808A0C5E900604FF48068C7
:10134000C5E903682846FFF70DFEFFF797F904008B
:101350001DD1FFF7D7FDA5F1880738600420FFF7FE
:10136000D1FD78600820FFF7CDFDB8600C20FFF7B5
:10137000C9FDF860D9F804004F4650B1012808D0E3
:10138000062806D0022804D014E0FFE72520BDE897
:10139000F88F0320C5E9006005F108014020A1E8AD
:1013A00041011948FFF7DEFD69460320FFF780F988
:1013B0000400ECD17868042821D0BDF80000B860A2
:1013C000000428600920C5E9010AC5E903680E4840
:1013D000FFF7C8FDFFF752F90400D8D1FFF792FDDF
:1013E000094D983D28600420FFF78CFD68600820B7
:1013F000FFF788FDA8600C20FFF784FDE860204619
:10140000C5E70000140000201C05002030B51F4D6A
:1014100004468FB04FF0FA512846FFF783F90021B8
:101420002846FFF795F92846FFF79CF94FF0006032
:1014300000901748CDE9010400200390291504907D
:10144000CDE90501890007918900CDE908104FF425
:1014500040300A9004200B9003200C9048020D901D
:1014600080100E9069462846FFF72EFA01221021BF
:101470002846FFF713FA20212846FFF705FA012135
:101480002846FFF765F90FB030BD000058640240F0
:10149000802C014030B51F4D04468FB04FF0FA51FB
:1014A0002846FFF73FF900212846FFF751F9284663
:1014B000FFF758F94FF0006000901748CDE901049C
:1014C00040200390002029150490CDE905018900F2
:1014D00007918900CDE908104FF440300A900420AC
:1014E0000B9003200C9048020D9080100E906946DE
:1014F0002846FFF7E9F9012210212846FFF7CEF927
:1015000020212846FFF7C0F901212846FFF720F9DE
:101510000FB030BD58640240802C01407CB50121E1
:101520000C20FFF7B3FB244D0C2208212846FFF7BF
:10153000FDFA0C2209212846FFF7F8FA0C220A21AD
:101540002846FFF7F3FA0C220B212846FFF7EEFAA4
:101550000C2211462846FFF7E9FA184E0C22022108
:101560003046FFF7E3FA4FF47060012100908DF8E8
:10157000051002208DF8040000248DF806408DF837
:10158000071069462846FFF793FA04200090694641
:101590003046FFF78DFAA81400908DF80740694691
:1015A0002846FFF785FA0121C802FFF787FB0121D2
:1015B0008805FFF76BFB7CBD00080240000C024071
:1015C0002DE9F05F4FF0000868487621C1460175AB
:1015D000C0F80080C0F80480C0F80880C0F80C8013
:1015E000454646464C46C0F81080FFF79FFC032056
:1015F000FFF7CCFC0120FFF733FC5C4F4FF4806019
:1016000018373C607C60BC60C7E903403846FFF790
:10161000A9FC4FF4803B5C4601E0641E1CD0802096
:10162000FFF754FC0028F8D0B4B140F2FF50FFF7A8
:101630000BFC4FF4D570386008204FF0400AC7E922
:10164000010AC4014948C7E903941830FFF78AFC2E
:10165000474A5846116807E00320BDE8F09F00BFE5
:101660004349A0F10100096811F0450F13D008B1FA
:10167000480713D50420FFF7E7FB4846372187E8E2
:101680000304C7E9039439481830FFF76BFC37208F
:10169000FEF77EFF0BE00028E2D1EBE7480602D51B
:1016A0004020FFF7D1FB33490120860748604946B7
:1016B00038463722C0E900124022C7E902212B48F0
:1016C000CB46B946A24618303C61FFF74BFC3720A9
:1016D000FEF75EFF04003AD02AE0584637214FF06B
:1016E000400889E803014C462048C4E903BA183091
:1016F000FFF738FC3720FEF74BFF0028ADD11E481E
:1017000030432060C4F810A0241D2920A4E801095A
:1017100016481830FFF726FC15490024086810F019
:10172000450FFBD0400705D503240420FFF78CFBB1
:10173000204692E740F2FF50FFF786FB0020FFF7BC
:10174000E1FB8046C00F05F1010502D003E04FF632
:10175000FF77BD42C1D3BD4201D31B207DE718F006
:10176000804FE5D0034802214160E1E704050020F5
:10177000342C01401400002000001080074800684D
:1017800010F0C05F08D006490120486103484FF0BF
:10179000C2515830FEF7C6BF7047000000640240D7
:1017A0001400002070B54FF480752846FFF798FBB1
:1017B0001F4C38B1002020702846FFF74BFB01205A
:1017C00020612EE00220FFF78BFB20B10220FFF703
:1017D00041FB022024E00820FFF782FB20B1082013
:1017E000FFF738FB04201BE02020FFF779FB20B136
:1017F0002020FFF72FFB062012E01020FFF770FBE0
:1018000020B11020FFF726FB052009E04FF40075FA
:101810002846FFF765FB20B12846FFF71BFB072092
:10182000207000214CF23A30FFF774FB207870BD35
:10183000140000202DE9F0478046274800270C4679
:10184000154607700761C76024490F604068022889
:1018500001D10502640A224E4FF4806A1020C6F8B6
:1018600010A0C6E900504FF04009C6E90297304683
:10187000FFF778FB1020FEF78BFE002829D1411ED0
:1018800006F11400C0E90015902181600221C0E931
:10189000031701214161FFF7EFFA1120C6F810A0EC
:1018A000C6E90040C6E902973046FFF75BFB11200E
:1018B000FEF76EFE04000CD1012140F22A30FFF742
:1018C00029FB0120FFF7D2FA29464046FFF79EFD8B
:1018D0002046BDE8F0870000140000202C2C0140B9
:1018E0001C0500202DE9F05F81462A4800270C46A0
:1018F00015469846077007614FF0010BC0F80CB011
:1019000025490F604068022801D10502640A234E70
:10191000102006F10801C6E9005040204FF4806A0B
:10192000A1E881043046FFF71DFB1020FEF730FED2
:1019300000282CD1411E06F1140008FB05F8C0E96F
:101940000018902181600C300221A0E8820806F185
:101950001400FFF791FA1220C6E900400836402033
:10196000A6E881040D48FFF7FDFA1220FEF710FEED
:1019700004000CD1012140F22A30FFF7CBFA0120FC
:10198000FFF774FA41464846FFF740FD2046BDE8A0
:10199000F09F0000140000202C2C01401C050020AA
:1019A000094910B508600720486040208860002081
:1019B000C8604FF4806008610846FFF7D3FABDE8BD
:1019C00010400720FEF7E4BD1C05002070B505009F
:1019D00019D00E48806801040D4801600D21416056
:1019E000402181600021C1604FF480610161FFF7F7
:1019F000B9FA0D20FEF7CCFD040003D1FFF782FAFF
:101A00002860204670BD262070BD00001400002014
:101A10001C050020084810B500210C22C0E9001266
:101A20004022C0E9022111010161FFF79BFABDE8E4
:101A300010400C20FEF7ACBD1C05002070B5002541
:101A40006C1E2046144E01E0A0F10100716929B915
:101A5000316919B9317809B90028F5D100207061D0
:101A60000E4801E0A4F101040168890401D5002CAD
:101A7000F8D1F068012802D1FFF7CCFF05462C43CE
:101A800000D1042540F2FF50FFF7DEF9307808B1AD
:101A9000307870BD284670BD14000020342C014001
:101AA0002DE9F0478046264800260D46144606706C
:101AB0000661C66023490E604068022801D1040215
:101AC0006D0A214F4FF4806A1020C7F810A0C7E9B3
:101AD00000404FF04009C7E902963846FFF742FA46
:101AE0001020FEF755FD002828D11820C7F810A0B7
:101AF000C7E90050C7E902963846FFF733FA1820C5
:101B0000FEF746FD002819D1411E07F11400C0E977
:101B100000149021C0E902160121C0E90461FFF719
:101B2000ABF9012140F22A30FFF7F4F92146404693
:101B3000FFF7B0FC0120FFF799F93046BDE8F087C8
:101B4000140000202C2C01401C0500202DE9F05F22
:101B5000DFF8F0A0804600200C4615461E468AF8A5
:101B60000000CAF810000122CAF80C20364A1060A2
:101B7000DAF80410022901D10D02640A334F102152
:101B80004FF0400B81468801C7F808B0C7E90390C1
:101B9000C7E900513846FFF7E5F91020FEF7F8FCD9
:101BA00000284DD1DAF80800DA4600043860372002
:101BB000C7E9010A4FF4806BC7E9039B3846FFF77A
:101BC000D1F93720FEF7E4FC002839D11720C7F8F7
:101BD00010B0C7E90060C7E902A93846FFF7C2F9AB
:101BE0001720FEF7D5FC00282AD11920C7E90040AC
:101BF000C7F810B0C7E902A94C463846FFF7B2F95A
:101C00001920FEF7C5FC00281AD1411E07F1140067
:101C10006E43C0E900169021C0E902140121C0E919
:101C20000441FFF729F9012140F22A30FFF772F948
:101C30000120FFF71BF931464046FFF72BFC2046F9
:101C4000BDE8F09F140000202C2C01401C05002052
:101C50002DE9FC4701210D20FFF718F80121102084
:101C6000FFF72CF801214804FFF71CF80121880434
:101C7000FFF718F80121C804FFF714F8012120200C
:101C8000FFF71CF8404F072209213846FEF74EFFA8
:101C9000DFF8F880072205214046FEF747FF0722BC
:101CA00008214046FEF742FFDFF8E49008220621B3
:101CB0004846FEF73BFF07220A213846FEF736FF6B
:101CC000072206214046FEF731FF07220921404640
:101CD000FEF72CFF082201213846FEF727FF0822D5
:101CE00007214846FEF722FF00208DF8060001205C
:101CF0008DF80700022445028DF8044000958DF808
:101D0000054069463846FEF7D3FE600200908DF824
:101D1000044069463846FEF7CBFE202000908DF83F
:101D2000054069464046FEF7C3FE40268DF8044054
:101D3000694640460096FEF7BBFEE00100908DF834
:101D4000054069464046FEF7B3FE8DF804406946FB
:101D500040460095FEF7ACFE8DF8044069463846D3
:101D60000094FEF7A5FE00968DF8054069464846AA
:101D7000FEF79EFE802000908DF80440694648469C
:101D8000FEF796FEBDE8FC8700000240000C024012
:101D90000008024070470000224900200A6842F40F
:101DA00080320A604FF4A0630A6800F1010012F467
:101DB000003F01D19842F7D10868800331D5194816
:101DC0004030026842F0805202601748026842F4D4
:101DD000804202601348083002680260026842F4E0
:101DE00000420260026842F4A0520260031F0F4AE0
:101DF0001A600A6842F080720A600A689201FCD593
:101E00000B4A40F205611160016821F00301016095
:101E1000016841F0020101600168C1F381010229FA
:101E2000FAD1704700380240007000400854400763
:101E3000003C0240124810B5016841F47001016095
:101E40001048016841F0010101600E4A002108328A
:101E5000116002680C4B1A400260031D0B4A1A60A5
:101E6000026822F48022026006480C300160FFF70D
:101E700093FF03494FF000608039086010BD0000F7
:101E800088ED00E000380240FFFFF6FE103000242D
:101E900010B5054800F01CF9044908700978BDE840
:101EA0001040034800F018B9004C0040100000201A
:101EB0000014014010B5064C204600F009F9054910
:101EC000087009782046BDE8104000F005B9000010
:101ED000001001401000002010B5064C204600F014
:101EE000F7F80549087009782046BDE8104000F071
:101EF000F3B80000004400401000002010B5064C6C
:101F0000204600F0E5F80549087009782046BDE84C
:101F1000104000F0E1B80000004800401000002030
:101F200010B5064C204600F0D3F805490870097832
:101F30002046BDE8104000F0CFB80000001401407A
:101F4000100000200029818902D041F4005101E0F5
:101F500021F40051818170471FB54FF4614000901A
:101F60000020ADF80400ADF80600ADF80800ADF8AB
:101F70000C000C20174CADF80A006946204600F012
:101F80004BF801212046FFF7DDFF134C6946204640
:101F900000F042F801212046FFF7D4FF0F4C6946BC
:101FA000204600F039F801212046FFF7CBFF0C4C0A
:101FB0006946204600F030F801212046FFF7C2FFB5
:101FC000084C6946204600F027F801212046FFF71B
:101FD000B9FF1FBD00100140004400400048004010
:101FE000004C004000140140C1F3421301F01F0CEB
:101FF000012101FA0CF1012B07D0022B07D014307C
:10200000002A026805D00A4304E00C30F8E71030DB
:10201000F6E78A43026070477FB50446008A0D46A2
:1020200020F44051E88808432082A08941F20C61E5
:102030008843A9882A8911436A8902431143A181EF
:10204000A08A20F44071A8890843A0826846FEF760
:102050004DFE1D48844202D01C48844201D10398A1
:1020600000E00298A1890904002900EBC00101EBFE
:102070000010296802DA4FEA410101E04FEA8101CC
:10208000B0FBF1F06422B0FBF2F14FEA01114FEA2C
:1020900011136FF018056B4300EB8300A3891D0437
:1020A0004FF0320306D503EBC000B0FBF2F000F0B6
:1020B000070005E003EB0010B0FBF2F000F00F00AA
:1020C000084320817FBD0000001001400014014042
:1020D0008088C0F308007047C1F308018180704711
:1020E000FEE7000010B504460A464078012304F1DB
:1020F000300100F047FB08B1032010BDB4F82E02F8
:10210000A0F52A41553901D0022010BD94F866008F
:10211000D4F8671040EA01210848B0EB012F08D03D
:1021200094F88210D4F8832041EA0221B0EB012F09
:1021300001D1002010BD012010BD00000046415417
:102140002DE9F0470B46016815460A78303A092A0E
:1021500008D84C783A2C05D1891C016012B10B20AB
:10216000BDE8F087794804681C609CB1207820B1F4
:10217000607800F029FBC1070ED04FF0000984F809
:102180000090484684F8019000F0DAFAC10708D0C0
:102190000320E5E70C20E3E70DB1400704D400205D
:1021A000DEE71DB1400701D50A20D9E700210E4620
:1021B0002046FFF797FF01280CD104F5F77001794D
:1021C000E9B3017AD0F8090041EA002631462046F9
:1021D000FFF788FF032801D088BB01E00120BFE79B
:1021E000B4F83B00B0F5007F5DD1B4F84680B8F19B
:1021F000000F05D194F85400D4F8551040EA012896
:10220000C4F81C8094F84000E070012801D0022836
:1022100049D194F83D5008FB00FCA5707DB1691EC2
:102220000D4240D1B4F84110218108073BD1B4F8E8
:10223000430038B994F85000D4F8512000E032E05F
:1022400040EA0220E38F73B303EB0C0202EB11129E
:10225000904228D3801AB0FBF5F020B3012540F658
:10226000F677B84200D302254FF6F677B84200D38E
:1022700003253244A262801CF218A0612262032D61
:1022800013D081B102EB0C016162022D18D000F075
:10229000010100EB400001EB500000BF00F2FF1015
:1022A000B8EB502F0ED20D205AE70029FBD194F83D
:1022B0005C10D4F85D20800041EA02216162EDE704
:1022C0004000EBE74FF0FF30C4E903904F46032D89
:1022D00031D16771B4F860000123821962616078BE
:1022E00004F1300100F04EFA28BBB4F82E02A0F53C
:1022F0002A4155391FD194F83000D4F8311040EA02
:1023000001201349884216D194F81402D4F815120A
:1023100040EA01200F4988420DD194F81C02D4F8FC
:102320001D1240EA0120E06094F81802D4F8191256
:1023300040EA0120206105492570091F0888401CDA
:102340000880E080E762277129E700004000002054
:1023500052526141727241618269891E921E8A42A3
:1023600001D800207047826A807801FB0020704706
:102370002DE9F04105460F0006D000F0EFFD0228E0
:1023800009D20120BDE8F081EE6816B1A869B0421B
:1023900005D8012603E0A9698142F3D83E463446B8
:1023A000A869641CA04202D80224022E0AD3214646
:1023B000284600F0D3FD38B1411CE3D00128E1D01C
:1023C000B442EDD10020DDE76FF07042214628468F
:1023D00000F09CFF30B957B122463946284600F03C
:1023E00095FF20B101280BD001242046CAE7EC60FC
:1023F0002869411CF9D0401E286101206871F4E76A
:102400004FF0FF34F1E700002DE9F04784698A4678
:102410000B222021204600F03CFF00208146DAF804
:1024200000604A464FF00808B35C521C202B50D97C
:102430002F2B4ED05C2B4CD02E2B01D0C1450BD373
:10244000B8F1080F54D12E2B52D180064FF0080955
:102450004FF00B08000EE7E7802B01D340F003009C
:10246000A3F181057D2D13D8B15C521CA1F140056B
:102470003F2D02D3403D7F2D3AD2A8F10107B94547
:1024800036D204F8093009F1010904F809101DE0F9
:1024900024A51F4600E06D1C95F800C0BCF1000F9C
:1024A00002D0BC45F7D123E0A3F14105192D02D894
:1024B00040F0020008E0A3F16105192D04D8A7F14E
:1024C000200340F00100DBB204F8093009F10109F2
:1024D000AAE7B118CAF80010202B01D8042100E0A7
:1024E0000021B9F1000F03D02278E52A03D004E0DF
:1024F0000620BDE8F08705222270B8F1080F01D14F
:102500008006000E00F00302012A01D141F0100103
:10251000C0F38100012801D141F00801E1720020DF
:10252000E7E70000222A2B2C3A3B3C3D3E3F5B5D17
:102530007C7F00002DE9F0410446C0880F46401C16
:102540000604360C2DD0206958B331075ED1401CEB
:102550002061E168206829B18278521E12EA161FB4
:1025600004D053E00089B0421BD94FE000F0F6FCE4
:10257000054601281AD9681C33D020688169A94210
:102580003ED877B1E168FFF7F3FE05000CD0012DCE
:102590000CD0681C25D00021206800F081FE00BB13
:1025A00006E00420BDE8F0810720FBE70220F9E700
:1025B00020684FF400723030002100F06AFE294696
:1025C0002068FFF7C9FE216800274FF00108C862A4
:1025D0000FE000BF80F804800021206800F060FE5A
:1025E00008B10120DEE72068C16A491C7F1CFFB2E8
:1025F000C16220688178B942ECD8C16AC91BC16246
:10260000E56029462068FFF7A7FE2061E68006F016
:102610000F013022206802EB411108446061002064
:10262000C0E710B50446042015E0206800F038FE2D
:10263000B0B96269117861B1E52904D02E2902D0C0
:10264000D17A09070ED500212046FFF773FF10B19C
:1026500006E0042004E021690029E6D1002801D029
:102660000021216110BD70B50446002100F029F859
:102670000EE02169206800F013FE05001FD160699B
:102680000078E52807D030B101212046FFF752FF3E
:102690000500EED013E02169206800F001FE05007E
:1026A0000DD1666920220021304600F0F2FD0B2298
:1026B0003046A16900F0E4FD20680121017128463F
:1026C00070BD70B50D46C1808168044601291ED0D9
:1026D000206882698A421AD921B90278032A04D172
:1026E000416A11B18078060117E0E1600189A942D1
:1026F0000DD9406A17E0206800F030FC0146401C0C
:1027000007D0022903D320688069884203D80220B9
:1027100070BD012070BDA81B85B2B542EBD2E1604F
:102720002068FFF719FE00EB1510206105F00F017E
:102730003022206802EB411108446061002070BD26
:1027400010B510B1012804D110BDFEF7ADFD002871
:10275000FAD0012010BD000010B578B9084B04294B
:10276000986C0BD2DFE801F008020A07596CB1FB44
:10277000F0F0106000E01080002010BD042010BDBB
:10278000B404002010B5044608460BB19CB901E022
:10279000042010BD0B498C6C5102012BA2B20CD04D
:1027A000FFF7A0F8FFF74AF94FEA0004FEF76FFDC4
:1027B0000028FBD124B1012010BDFFF73BF8F1E761
:1027C000002010BDB4040020002804D0012803D04C
:1027D000022801D0012070470020704710B5044640
:1027E00008460BB19CB901E0042010BD0B498C6C6C
:1027F0005102012BA2B20CD0FFF7A8F9FFF71EF986
:102800004FEA0004FEF743FD0028FBD124B101206C
:1028100010BDFFF745F9F1E7002010BDB40400201A
:102820002DE9F74F14468A46002221466846FFF7F5
:1028300087FC5FEA000857D1206887690169BA1EE2
:10284000914202D8CAF800104EE090F8009000259E
:10285000B9F1010F01D0066A1AE00226314620685C
:1028600000F07CFB411C03D0012804D030B106E00D
:102870004FF0010808E04FF0020805E06D1C2068E9
:10288000761C80698642E9D3206805612AE05AB93E
:102890003146761C206800F003FD5FEA000819D17C
:1028A00021684FF400723031B9F1020F07D00B7874
:1028B000D1F801C043EA0C20000106D006E00888E8
:1028C00000B96D1C891C921E02E06D1C091D121FAF
:1028D0007F1EDCD12068B9F1030F056102D12168A8
:1028E00001204871CAF800504046BDE8FE8F2DE92E
:1028F000F14F98B000F08EFB0746012202A918A8FC
:10290000FFF71EFC050009D114A8089002A8189929
:1029100000F0CBFA050002D0042D02D0ADE008256E
:10292000ABE000210298FFF723FD06004FF0000501
:1029300002D0012E05D000E00725701C03D025B180
:102940007CE002257AE0012578E00021029800F081
:10295000A7FC050072D131460298FFF7FDFC029CEE
:10296000804630344FF400720021204600F091FC84
:102970000B222021204600F08CFC2E2525701020F3
:10298000E072F8B20C90A075C7F307200B90E075C9
:10299000C7F307400A902076380E09906076F0B2AF
:1029A0000F90A076C6F3072A84F81BA0C6F3074948
:1029B00084F814904FEA166B84F815B02022214653
:1029C00004F1200000F05CFC84F821500299049886
:1029D0000978032904D10299496A814200D1002073
:1029E00004F134044FEA1021A071E1714FEA104163
:1029F00021704FEA106060700298A4F13404877867
:102A000015E00298C0F82C800299012008F1010815
:102A100008710021029800F043FC05000ED14FF42C
:102A200000720021204600F034FC7F1EFFB2002F10
:102A3000E7D102A8FFF717FE050004D0314602983F
:102A400000F0DFFC19E007981021C1720C99817524
:102A50000B99C1750A990176099941760F9981768A
:102A600080F81BA080F8149080F815B0029901201E
:102A70000871029800F0F6FC054619B02846BDE83A
:102A8000F08F000008B10B207047054A0023106842
:102A900000B1037001B10B7000201160704700009D
:102AA000400000202DE9F7478BB04FF0000A0746A1
:102AB00002F01F06C0F800A026F0010269460CA82B
:102AC000FFF73EFB050007A8069004D168460C9965
:102AD00000F0EBF90546059C0DB904B9062516F082
:102AE0001C0F4FD055B1042D03D16846FFF7BBFD35
:102AF0000546059C46F0080645B16BE0700701D518
:102B0000082567E0E07A10F0110F45D1300749D56C
:102B100000F080FAA073010AE173010C2174000E29
:102B2000607484F80BA084F81CA084F81DA084F8BD
:102B30001EA084F81FA0A18AB4F81A8084F81AA0F5
:102B400084F81BA084F814A061F31F4884F815A032
:102B500000990120B8F1000F087121D0009841467A
:102B6000D0F82C9000F04DFC050033D10098A8F16E
:102B700001084946C0F80C80009800F091FB050060
:102B80000CD027E035BBE07AC10601D5042521E051
:102B9000B10703D5C00701D007251BE0300701D5D9
:102BA00046F020060098C06AC7E90704BE71A18AF2
:102BB000608B61F31F403861207FD4F81D1040EA1C
:102BC0000120C7E902A0C7F818A000983860009853
:102BD000C088B8800EB02846BDE8F08713B584B031
:102BE00004460146002205A8FFF7AAFA00281AD1D8
:102BF000C4F818D02046059900F057F980B96069EB
:102C000038B1C17AC9060DD5818A408B61F31F4066
:102C1000A06020680021C088A0802046FFF751FDF9
:102C2000042800D1052006B010BDFEB50D460446AF
:102C30008188006800F072FC002816D1B5B1C4F894
:102C400018D02046FFF7EDFC0026042813D00028FA
:102C50000BD12946204600F0DFF900212046FFF77E
:102C600069FC042801D100202661FEBD0021204618
:102C7000FFF727FDFEBD2661EBE770B504468188AE
:102C8000006800F04BFC00280ED1A1798A060BD514
:102C900048060ED52068012304F124014078A2697A
:102CA000FFF79CFD08B1012070BDA07920F0400025
:102CB000A071E169206800F0F3FA0028F4D1256AD8
:102CC000E87A40F02000E872E0682877E068000ABF
:102CD0006877E068000CA877E068000EE877206964
:102CE000A8762069000AE8762069000C287520691A
:102CF000000E687500F08EF9A875010AE975010CDF
:102D00002976000E6876A07920F02000A071216855
:102D1000012008712068BDE8704000F0A3BB2DE9D8
:102D2000F05F0446002018600F4615469846A188BB
:102D3000206800F0F3FB002803D1A079010602D53A
:102D40000220BDE8F09F800701D40720F9E7E06882
:102D500004F124094119814279D398E0A168C8059A
:102D600079D120688278521E02EA512212F0FF06C1
:102D70000BD1B1B16169FFF7FBFA0146002966D0BA
:102D8000012935D0481C5CD06161A079400614D57A
:102D90002068012349464078A269FFF71FFDE8BB80
:102DA00007E021690029EBD1FFF7E2FA0146206133
:102DB000E4E7A07920F04000A07161692068FFF786
:102DC000CBFAA8B100EB060B5FEA552A2AD020689F
:102DD00006EB0A018278914201D9A2EB060A4078FB
:102DE0000AF0FF035A463946FFF7F8FCB0B904E091
:102DF000A07940F08000A071A2E7A069A0EB0B00D1
:102E000050450AD207EB40214FF40072484600F0CB
:102E100037FAA07920F04000A07100E011E04FEAFD
:102E20004A262AE0A069584513D0D4E90201884215
:102E30000FD2206801235A4640784946FFF7A2FC8A
:102E400038B1A07940F08000A071012079E721E03D
:102E500001E0C4F818B0A068C0F30800C0F500761F
:102E6000AE4200D92E46204424303246394600F086
:102E700007FAA07940F04000A071A06837443044C0
:102E8000A060D8F80000AD1B3044C8F80000002D49
:102E90007FF464AFD4E90201884200D9E060A079F0
:102EA00040F02000A07100204BE773B50446019864
:102EB00001782F2901D05C2901D1401C0190002507
:102EC000A56001980078202805D200212046FFF750
:102ED000F8FB65617CBD01A92046FFF795FA002843
:102EE000F8D100212046FFF7ECFB10BB21692068D8
:102EF00000F0D6F9E8B961690A782AB1CA7A1207EE
:102F000011D40A23A26903E0042012E05B1E07D358
:102F100011F8015B12F8016BB5EB060CF6D002E07C
:102F2000BCF1000F05D000212046FFF703FB00286D
:102F3000DCD0A169C97A28B10428CBD14907C9D40A
:102F400005207CBD4907FCD46069C17AC906F7D564
:102F5000818A408B61F31F40A060BCE72DE9F041FE
:102F600004460D46022902D3A069A84202D80120D6
:102F7000BDE8F0812078012804D0022826D003285B
:102F800037D12FE0206A05EB550600EB562120468D
:102F900000F086F968BBC6F308002044761C90F860
:102FA0003070206A00EB5621204600F079F900BB12
:102FB000C6F308002044E90790F8300047EA0020F3
:102FC00001D00009D4E7C0F30B00D1E7206A00EB81
:102FD0001521204600F064F958B9E8B204EB40002E
:102FE000008EC5E7206A00EBD511204600F058F9A5
:102FF00010B14FF0FF30BBE740F2FF1000EA850050
:10300000204410F8301FD0F8010041EA002020F0E1
:103010007040ADE70020704710B5036901F1090267
:1030200073B340695FF0000310F803C0BCF1200FD8
:1030300009D0BCF1050F01D14FF0E50C5B1C02F883
:1030400001CB082BF0D3037A202B0DD02E2302F8CE
:10305000013B082310F803C0BCF1200F04D05B1C17
:1030600002F801CB0B2BF5D3C37A0B72037FD0F898
:103070001D4043EA04230B60038B8B80C08AC88009
:103080000020107010BD0000ADF5127DFDF7E2FCD0
:10309000FDF761FDFEF7DCFDFEF75EFF464C042107
:1030A0002046FDF753FD02212046FDF74FFD082184
:1030B0002046FDF74BFD414D40F2255401222146AB
:1030C0002846FEF791FF012221463D48FEF78CFF7E
:1030D000012221463B48FEF787FF012221463A485C
:1030E000FEF782FF012221463848FEF77DFF61216D
:1030F0002846FEF7F1FF61212846FEF7EDFF61212A
:103100002846FEF7E9FFFEF7CFF8314C607058B95A
:103110003048FDF77BFF607030B92E48B0F84C00A6
:103120000004FEF73DFC607069460020FFF7AAFC32
:10313000274A29A00C32111FFFF772FB27A0FFF7C7
:10314000D6FB28A12948FFF749FD60B98CA927487B
:10315000FFF76BFDA07030B99DF8390218B12078E7
:10316000401C2070F2E7227821A12648FDF788F85C
:103170002449132201F58070FFF794FC2248FFF7E1
:103180007CFD1A4821A11C30FDF700F917482EA13B
:103190001C30FDF73EF915481C30FDF71BF90C4BB0
:1031A000124902461B1D1C311748FFF7B8FD16488F
:1031B000FFF763FDEFE70000001002400010014040
:1031C0000044004000480040004C00400014014012
:1031D00000000020B40400202F00000046696C6548
:1031E000000000002F46696C6500000068030020A5
:1031F0002F46696C652F6461745F25642E74787442
:10320000000000004400002044010020B2E2CAD4C3
:10321000494D55CAFDBEDD3A313030206465672F17
:10322000732C313030206465672F732C313030209F
:103230006465672F732C313020672C313020672C68
:10324000313020670D0A0000475053CAFDBEDD3AF9
:10325000313030206465672F732C31303020646545
:10326000672F732C313030206465672F732C313019
:1032700020672C313020672C313020670D0A000088
:1032800004E000BF11F8013B00F8013B521EF9D2E7
:103290007047C9B201E000F8011B521EFBD2704713
:1032A0002DE9F041C56A0F460446BD422BD0207976
:1032B00004F13008D8B1607801232A464146FFF76F
:1032C0008DFAE0B900202071D4E907100844A84223
:1032D0000DD9E67809E0E0690123054460782A46C3
:1032E0004146FFF77BFA761EF6B2012EF3D857B1AE
:1032F000607801233A464146FFF744FA10B10120B5
:10330000BDE8F081E7620020FAE700002DE9F04116
:1033100004460D461646022902D3A069A84202D8E7
:103320000220BDE8F08120784FF00108012808D084
:10333000022839D0032847D05FF0020084F80480C7
:10334000EFE7206A05EB550700EB57212046FFF712
:10335000A7FF0028F2D1C7F3080001193031EA07AE
:10336000F0B203D00246087862F31F10087084F8A8
:103370000480206A7F1C00EB57212046FFF790FF56
:103380000028DBD1C7F3080121443031EA0702D01D
:10339000C6F3071206E00A78330A02F0F002C3F31C
:1033A00003031A430A70C9E7206A00EB152120467F
:1033B000FFF776FF0028C1D1E9B204EB4101320AE0
:1033C00001F8306F4A70B9E7206A00EBD51120464A
:1033D000FFF766FF0028B1D140F2FF1101EA850135
:1033E0000A1930324FF07043D2F8011003EA01217C
:1033F000314311700B0A53700B0C9370090ED1708E
:103400009CE72DE9F04106460C46022918D3B06925
:10341000A04215D900254FF001081DE02146304695
:10342000FFF79CFD07001AD0012F09D0781C09D0A6
:10343000002221463046FFF769FF05000FD103E067
:1034400002250CE001250AE03069411C03D0401C34
:10345000306186F805803C46B069A042DED8284637
:10346000BDE8F0812DE9F04104460021FFF718FF87
:10347000050050D12078032846D16079F0B30027A9
:1034800004F130004FF4007239460646E762FFF758
:1034900000FF552084F82E02AA2084F82F02522023
:1034A00084F8300084F83100612084F83200412132
:1034B00084F83310722284F8142284F8152284F8D8
:1034C000161284F81702206984F81802010A84F899
:1034D0001912010C84F81A12000E84F81B02E0681D
:1034E00084F81C02010A84F81D12010C000E84F8F5
:1034F0001E1284F81F026078012300E004E03146C8
:103500006269FFF76BF96771002260781146FFF777
:1035100023F900B101252846BDE8F08110B520B19E
:10352000027812B1C2888A4201D0092010BD4078C9
:10353000FFF74AF9C007F9D0032010BD4FF04070E3
:10354000E1EE100A70470000683500080000002016
:1035500044000000C4010008AC350008440000200D
:10356000640B0000E0010008000000000000000003
:10357000000000000000000000000000000000004B
:10358000000000000000000000000000000000003B
:103590000000000000000000010203040102030417
:0C35A00006070809000000000000000001
:040000050800018965
:00000001FF
